S0120000536D6172745F486F6D652E7372656323
S11300000C942A000C9434000C9434000C943400A6
S11300100C9434000C9434000C9434000C9434008C
S11300200C9434000C9434000C9434000C9434007C
S11300300C9434000C9440000C9434000C94340060
S11300400C9434000C9434000C9434000C9434005C
S11300500C94340011241FBECFE5D8E0DEBFCDBF21
S11300600E946E000C94DF000C94000060E875E2BE
S113007080E090E00E9486000E9473000895089535
S11300801F920F920FB60F9211242F933F934F9309
S11300905F936F937F938F939F93AF93BF93EF93EC
S11300A0FF938CB10E9482002FEF89E698E12150E2
S11300B080409040E1F700C00000FF91EF91BF91B4
S11300C0AF919F918F917F916F915F914F913F91EC
S11300D02F910F900FBE0F901F9018950E9436001D
S11300E00E943F00FDCF87B3806187BB87B38062E6
S11300F087BB87B38F7B87BB87B3806887BB80E56B
S11301008DB908958FB9779BFECF08952FB72068D6
S11301102FBF2AB128612AB920B5266820BD2BB18A
S113012022602BB9DC01CB01880F991FAA1FBB1FCA
S1130130880F991FAA1FBB1F9C01AD01220F331FFB
S1130140441F551F220F331F441F551F60E074E2E4
S113015084EF90E00E94BD008FEF820F89B9DA012D
S1130160C9010197A109B109892F9A2FAB2FBB2788
S113017080BD8AB180688AB90895A1E21A2EAA1BAB
S1130180BB1BFD010DC0AA1FBB1FEE1FFF1FA21743
S1130190B307E407F50720F0A21BB30BE40BF50B40
S11301A0661F771F881F991F1A9469F760957095C9
S11301B0809590959B01AC01BD01CF010895F89401
S10501C0FFCF6B
S9030000FC
