S0120000536D6172745F486F6D652E7372656323
S11300000C942A000C944E000C9492000C943F0023
S11300100C943F000C943F000C943F000C943F0060
S11300200C943F000C943F000C943F000C943F0050
S11300300C943F000C943F000C943F000C943F0040
S11300400C946D010C943F000C943F000C943F0001
S11300500C943F0011241FBECFE5D8E0DEBFCDBF16
S113006011E0A0E6B0E0EEEFF7E002C005900D92DB
S1130070A831B107D9F70E94CF020C94FD030C9468
S113008000000E94C6010E94DE010E94A80108959A
S11300900E94CA0108950E94CE0108951F920F92F2
S11300A00FB60F9211242F933F934F935F936F9347
S11300B07F938F939F93AF93BF93EF93FF930E948C
S11300C0E2010E94CB0280E690E00E94BE022FEF84
S11300D083EC99E0215080409040E1F700C000009B
S11300E00E94CB020E94E601FF91EF91BF91AF9174
S11300F09F918F917F916F915F914F913F912F913C
S11301000F900FBE0F901F9018950E94D2010E946D
S1130110DE010E94B40108950E94D60108950E9450
S1130120DA0108951F920F920FB60F9211242F93A4
S11301303F934F935F936F937F938F939F93AF936B
S1130140BF93EF93FF930E94E2010E94CB028FE6DC
S113015090E00E94BE022FEF83EC99E02150804092
S11301609040E1F700C000000E94CB020E94E6012B
S1130170FF91EF91BF91AF919F918F917F916F917B
S11301805F914F913F912F910F900FBE0F901F9051
S113019018950E9431028EE790E00E94BE020E94F0
S11301A0730280E990E00E94BE022FEF81EE94E09A
S11301B0215080409040E1F700C000000E94CB0233
S11301C00E94E5030E94A4010E94C0010E94410014
S11301D00E94850008950E94F9038234E9F018F41E
S11301E0813431F055C0833459F18434E9F150C07D
S11301F00E9448000E94CB0283EA90E00E94BE0263
S11302002FEF81EE94E0215080409040E1F700C050
S113021000000E94CB0208950E944B000E94CB0272
S113022081EB90E00E94BE022FEF81EE94E021501A
S113023080409040E1F700C000000E94CB02089586
S11302400E948C000E94CB0280EC90E00E94BE02CF
S11302502FEF81EE94E0215080409040E1F700C000
S113026000000E94CB0208950E948F000E94CB02DE
S11302708EEC90E00E94BE022FEF81EE94E02150BC
S113028080409040E1F700C000000E94CB02089536
S11302908DED90E00E94BE022FEF81EE94E021509C
S11302A080409040E1F700C000000E94CB028AEE3B
S11302B090E00E94BE020E9473028AEF90E00E94C6
S11302C0BE022FEF83EC99E0215080409040E1F78B
S11302D000C000000E94CB0208951F920F920FB637
S11302E00F9211242F933F934F935F936F937F93B8
S11302F08F939F93AF93BF93EF93FF930E94CB028F
S11303008CE091E00E94BE020E94E2012FEF83EC98
S113031099E0215080409040E1F700C000000E9425
S1130320E6010E94CB02FF91EF91BF91AF919F91A3
S11303308F917F916F915F914F913F912F910F908A
S11303400FBE0F901F9018958FB780688FBF0895C8
S11303500E94A4018BB780648BBF85B7826085BF80
S113036085B78E7F85BF08950E94A4018BB78068EE
S11303708BBF85B7886085BF85B7846085BF0895C6
S11303800E94D40281E00E94F002089584B3846044
S113039084BB089585B3846085BB089585B38B7F42
S11303A085BB089584B3806884BB089585B3806851
S11303B085BB089585B38F7785BB08958AB388601C
S11303C08ABB08958BB388608BBB08958BB3877FFA
S11303D08BBB0895CF93C82F40E061E081E00E9479
S11303E0740340E062E081E00E94740340E063E053
S11303F081E00E9474038BB39C2F907F8F70892BB4
S11304008BBB41E063E081E00E9474038FE99FE0CD
S11304100197F1F700C0000040E063E081E00E9432
S1130420740320E1C29FC00111249BB39F70892BE8
S11304308BBB41E063E081E00E9474038FE99FE09D
S11304400197F1F700C0000040E063E081E00E9402
S113045074038FE39FE10197F1F700C00000CF918F
S1130460089541E061E081E00E94030341E062E01D
S113047081E00E94030341E063E081E00E94030302
S113048041E064E080E00E94030341E065E080E035
S11304900E94030341E066E080E00E94030341E020
S11304A067E080E00E9403032FEF81EE94E0215087
S11304B080409040E1F700C0000082E00E94EA0121
S11304C083E30E94EA0182E30E94EA0188E20E9437
S11304D0EA018CE00E94EA0181E00E94EA0186E0E0
S11304E00E94EA01089580EC0E94EA010895CF93E6
S11304F0C82F41E061E081E00E94740340E062E0C3
S113050081E00E94740340E063E081E00E94740390
S11305108BB39C2F907F8F70892B8BBB41E063E062
S113052081E00E9474038FE99FE00197F1F700C016
S1130530000040E063E081E00E94740320E1C29F78
S1130540C00111249BB39F70892B8BBB41E063E0F6
S113055081E00E9474038FE99FE00197F1F700C0E6
S1130560000040E063E081E00E9474038FE39FE1B8
S11305700197F1F700C00000CF910895CF93DF9366
S1130580EC0103C00E947702219688818111FACF81
S1130590DF91CF91089581E00E94EA0108950E94BD
S11305A0C9000E94EB00FDCF87B18F7787B987B16F
S11305B0806487B986B1816086B986B1826086B964
S11305C086B1846086B986B1806886B986B1886050
S11305D086B986B18F7D86B98FB780688FBF08953D
S11305E09AB321E030E0082E02C0220F331F0A9490
S11305F0E2F7209529232ABB97B1892B87B986B1C5
S1130600806486B90895442319F04130C9F10895EE
S1130610813091F028F08230D9F0833029F10895A7
S11306202AB381E090E002C0880F991F6A95E2F72F
S1130630809582238ABB089527B381E090E002C0AD
S1130640880F991F6A95E2F78095822387BB0895E6
S113065024B381E090E002C0880F991F6A95E2F705
S11306608095822384BB089521B381E090E002C089
S1130670880F991F6A95E2F78095822381BB0895BC
S1130680813089F028F08230C9F0833011F1089567
S11306902AB381E090E002C0880F991F6A95E2F7BF
S11306A0822B8ABB089527B381E090E002C0880FB3
S11306B0991F6A95E2F7822B87BB089524B381E0E2
S11306C090E002C0880F991F6A95E2F7822B84BBE1
S11306D0089521B381E090E002C0880F991F6A95C4
S11306E0E2F7822B81BB0895442319F04130C9F10C
S11306F00895813091F028F08230D9F0833029F1C7
S113070008952BB381E090E002C0880F991F6A9589
S1130710E2F7809582238BBB089528B381E090E0B3
S113072002C0880F991F6A95E2F78095822388BBDF
S1130730089525B381E090E002C0880F991F6A955F
S1130740E2F78095822385BB089522B381E090E08F
S113075002C0880F991F6A95E2F78095822382BBB5
S11307600895813089F028F08230C9F0833011F186
S113077008952BB381E090E002C0880F991F6A9519
S1130780E2F7822B8BBB089528B381E090E002C08E
S1130790880F991F6A95E2F7822B88BB089525B3C9
S11307A081E090E002C0880F991F6A95E2F7822BDE
S11307B085BB089522B381E090E002C0880F991FA1
S11307C06A95E2F7822B82BB089587B38F7E87BB3D
S11307D087B38F7D87BB87B3806487BB87B38F77ED
S11307E087BB1DB88DB180648DB98FB780688FBF0A
S11107F00895779BFECF8FB10895F894FFCF44
S11307FE4649524520414C41524D20524D310046FE
S113080E49524520414C41524D20524D3200202038
S113081E202057656C636F6D6520746F2020200057
S113082E2020536D61727420486F6D652041707085
S113083E202000524D2031204C49474854204F4E21
S113084E00524D2031204C49474854204F46460013
S113085E524D2032204C49474854204F4E00524DA1
S113086E2032204C49474854204F46460057524F99
S113087E4E4720454E5445522000504C4541534559
S113088E20454E544552203A2000202841202F2046
S113089E42202F2043202F2044292000474153205B
S10B08AE4C45414B4147450054
S9030000FC
